:020000040000FA
:08000000803102288731F52F41
:100AE40050018C0108005101910193019201080009
:100AF40071084001DD007008DC0008007108400145
:100B0400E1007008E000080071084001DF0070088F
:100B1400DE000800F1007108853198258531080050
:100B2400640080010131890B932D0034F0004E01E3
:100B34008D1D9D2D9E2D992D700842019A0008004F
:100B440086310B26853185317525853185317225B0
:100B540085318531C125853108005830FD007D0877
:100B64004001DA005708CF005608CE005A30FD0085
:100B74007D08D00000308531E32585310800083038
:100B840042019F0090309D0024309E0019309B004C
:100B94009C010030F0000030F10085318025853162
:100BA4000030F0000030F1008531862585310030B9
:100BB400F0000030F10085317A2585314001C8010B
:100BC40008004001D3004F08D5004E08D400C001EE
:100BD400C101FD2D5430D1005108FA005008D20053
:100BE4005208FB0053088631732685317A08400188
:100BF400C0077B08C13D54088400550885001200D5
:100C0400031D052E062EEC2D4108CF004008CE0012
:100C140008004001980199019A013F309200203068
:100C240093000E3094000C307E01CE002030C300BF
:100C34003330B800C401B901CF01BA01C501D001F4
:100C44003730BB00F030C600FF30D1003F30BC006D
:100C5400F030C700FF30D2000530A00011307D0114
:100C6400CB00080074080319382E392E3E2E740860
:100C7400031D3D2E3E2E432E720885318C25863170
:100C8400722E7408033E86008701160001040319BE
:100C94004C2E4D2E6A2E7408033E86008701403F79
:100CA400F500413FF600740A86008701403FF700D3
:100CB400413FF8007808803AF9007608803A7902D2
:100CC400031D662E750877020318692E6A2E722E8C
:100CD400740A860087010130810741310318810AB3
:100CE4000800FC007A0886008701403F4001C900E3
:100CF400413FCA00490884004A0885001200253A89
:100D0400031D852E862ECA2E7A088600870101309F
:100D1400810741310318810AC201C301C601C70119
:100D2400FF30C400FF30C5007A0886008701403FC9
:100D3400C900413FCA00490884004A0885001200DE
:100D4400253A031DA62EA72EBF2E7A0886008701FA
:100D54000130810741310318810A2530F200003047
:100D6400F3007C08C9004908F40086313426863132
:100D74000130FA000030FB00EC2E7A08860087016F
:100D84000130810741310318810AFA01FB01EC2E7D
:100D94007A0886008701403FC900413FCA004908DC
:100DA40084004A0885000008CB00CC014B08F200FF
:100DB4004C08F3007C08CD004D08F400863134263D
:100DC40086317A0886008701013081074131031892
:100DD400810ABA2E08008531C12586318531A225C4
:100DE4008631E2304001D6008830D7008531AF2506
:100DF400863160304001D6008830D7008531AF2578
:100E0400863137304001D6008830D7008531AF2590
:100E1400863140011916191399131A129A161A17C2
:100E24009A13A3304001DB005530890B172FDB0BDD
:100E3400172F40011912191399131A129A121A131F
:100E44009A13A3304001DB005530890B272FDB0BAD
:100E5400272F84304001D6008830D7008531AF2554
:100E6400863137304001D6008830D7008531AF2530
:100E7400863140011912191799131A169A121A1366
:100E84009A17A3304001DB005530890B472FDB0B49
:100E9400472F40011912191399131A129A121A138F
:100EA4009A13A3304001DB005530890B572FDB0B1D
:100EB400572F3C304001D6008830D7008531AF250C
:100EC400863137304001D6008830D7008531AF25D0
:100ED400863140011916191399131A169A121A1306
:100EE4009A13A3304001DB005530890B772FDB0BBD
:100EF400772F40011912191399131A129A121A13FF
:100F04009A13A3304001DB005530890B872FDB0B8C
:100F1400872FA6304001D6008830D7008531AF2511
:100F2400863137304001D6008830D7008531AF256F
:100F3400863140011912191799171A129A161A179D
:100F44009A17A3304001DB005530890BA72FDB0B28
:100F5400A72F40011912191399131A129A121A136E
:100F64009A13A3304001DB005530890BB72FDB0BFC
:100F7400B72FC5304001D6008830D7008531AF2562
:100F8400863137304001D6008830D7008531AF250F
:100F9400863140011912191399171A129A121A1349
:100FA4009A13A3304001DB005530890BD72FDB0B9C
:100FB400D72F40011912191399131A129A121A13DE
:100FC4009A13A3304001DB005530890BE72FDB0B6C
:100FD400E72F00304001D6008830D7008531AF2597
:100FE4008631803102282030840000308500293089
:100FF40085319225873140018631ED2E20342F34FE
:101004002F342F342F342F342F342F342F342F34C4
:101014002F342F342F342F342F342F342F342F34B4
:101024002F342F342F342F342F342F342F342F34A4
:101034002F342F342F342F342F342F342F342F3494
:101044002F342F342F342F342F342F342F342F3484
:101054002F342F342F342F342F342F342F342F3474
:101064002F342F342F342F342F342F3420340A3498
:101074000D3400342034543448344534203450344E
:1010840052344F3454344F34543459345034453436
:1010940020344934533420344D344F345634493495
:1010A4004E344734203446344F3452345734413468
:1010B4005234443420340A340D3400342F34203470
:1010C4005434483445342034503452344F34543436
:1010D4004F3454345934503445342034493453341F
:1010E40020345434553452344E3449344E34473415
:1010F40020345234493447344834543420340A3484
:101104000D340034203454344834453420345034BD
:1011140052344F3454344F345434593450344534A5
:1011240020344934533420345434553452344E34F6
:1011340049344E34473420344C34453446345434E2
:1011440020340A340D3400342034543448344534C3
:101154002034503452344F3454344F34543459348A
:1011640050344534203449345334203452344534D3
:101174005434553452344E3449344E344734203484
:101184000A340D3400342034543448344534203483
:10119400503452344F3454344F345434593450341A
:1011A40045342034493453342034533454344F3484
:1011B400503450344534443420340A340D3400342B
:1011C40049344E344934433449344F3420340A3496
:0411D4000D340034A2
:020000040001F9
:04000E00ED3FE73F9C
:04001400FF3FFF3F6C
:00000001FF
