:020000040000FA
:08000000803102288731F52F41
:100BAE0050018C010800510191019301920108003E
:100BBE0071084001DC007008DB000800710840017C
:100BCE00E0007008DF00080071084001DE007008C8
:100BDE00DD000800F10071088531FD258531080022
:100BEE00640080010131890BF82D0034F0004E01B4
:100BFE008D1D022E032EFE2D700842019A00080054
:100C0E008631702686318531DA2586318531D725B4
:100C1E00863186312626863108005830FD007D0843
:100C2E004001D8005708CF005608CE005830FD00BE
:100C3E007D08D00000308631482686310800083005
:100C4E0042019F0090309D0024309E0019309B0081
:100C5E009C010030F0000030F1008531E525863131
:100C6E000030F0000030F1008531EB258631003088
:100C7E00F0000030F1008531DF2586314001C801DA
:100C8E0008004001D3004F08D5004E08D400C00123
:100C9E00C101622E5430D1005108FA005008D20022
:100CAE005208FB0053088631D92686317A08400156
:100CBE00C0077B08C13D540884005508850012000A
:100CCE00031D6A2E6B2E512E4108CF004008CE0018
:100CDE0008004001980199019A01131213139313FE
:100CEE001412941214139413FC307E01CE00F030C3
:100CFE00C3003330B800C401B901CF01BA01C50138
:100D0E00D0013730BB00F030C600FF30D1003F308D
:100D1E00BC00F030C700FF30D2000530A00011300B
:100D2E007D01CB000800740803199E2E9F2EA42E61
:100D3E007408031DA32EA42EA92E72088531F12549
:100D4E008631D82E7408033E8600870116000104F2
:100D5E000319B22EB32ED02E7408033E86008701DF
:100D6E00403FF500413FF600740A86008701403F80
:100D7E00F700413FF8007808803AF9007608803A8B
:100D8E007902031DCC2E750877020318CF2ED02EB4
:100D9E00D82E740A8600870101308107413103186D
:100DAE00810A0800FC007A0886008701403F400156
:100DBE00C900413FCA00490884004A088500120054
:100DCE00253A031DEB2EEC2E302F7A088600870174
:100DDE000130810741310318810AC201C301C601E6
:100DEE00C701FF30C400FF30C5007A0886008701B6
:100DFE00403FC900413FCA00490884004A088500A7
:100E0E001200253A031D0C2F0D2F252F7A08860070
:100E1E0087010130810741310318810A2530F20024
:100E2E000030F3007C08C9004908F40086319A2688
:100E3E0086310130FA000030FB00522F7A0886000E
:100E4E0087010130810741310318810AFA01FB0144
:100E5E00522F7A0886008701403FC900413FCA00E1
:100E6E00490884004A0885000008CB00CC014B08D5
:100E7E00F2004C08F3007C08CD004D08F4008631DA
:100E8E009A2686317A088600870101308107413122
:100E9E000318810A202F08008631262687318631D5
:100EAE0007268731B1304001D6008830D700863111
:100EBE00142687312B304001D6008830D70086317A
:100ECE001426873140010D160E120D138D138E163A
:100EDE000E178E1314304001DA000730D90011308E
:100EEE00890B772FD90B772FDA0B772F0032003043
:100EFE004001D6008830D700863114268731400154
:100F0E000D120E160D178D138E120E138E17143022
:100F1E004001DA000730D9001130890B942FD90B1C
:100F2E00942FDA0B942F003276304001D6008830A1
:100F3E00D70086311426873140010D160E160D137B
:100F4E008D138E120E138E1314304001DA000730FB
:100F5E00D9001130890BB12FD90BB12FDA0BB12F6C
:100F6E00003254304001D6008830D7008631142626
:100F7E00873140010D120E120D178D178E160E179A
:100F8E008E1714304001DA000730D9001130890B6A
:100F9E00CE2FD90BCE2FDA0BCE2F0032943040014C
:100FAE00D6008830D70086311426873140010D12C5
:100FBE000E120D138D178E120E138E13023040016A
:100FCE00DA004530D900A930890BEB2FD90BEB2F66
:100FDE00DA0BEB2F0032612F803102282030840093
:100FEE000030850029308531F72587314001873162
:100FFE00532F45346C342034643469347334703474
:10100E006F34733469347434693476346F34203405
:10101E00653473347434E134203467346934723493
:10102E0061346E3464346F342034613420346C3463
:10103E006134203469347A347134753469346534EA
:10104E00723464346134003445346C342034643486
:10105E006934733470346F3473346934743469346E
:10106E0076346F342034653473347434E134203480
:10107E0067346934723461346E3464346F342034BE
:10108E00613420346C346134203464346534723409
:10109E006534633468346134003445346C34203440
:1010AE0044346934733470346F3473346934743443
:1010BE00693476346F342034653473347434E134E7
:1010CE00203472346534743472346F34633465345E
:1010DE006434693465346E3464346F3400344534AA
:1010EE006C34203444346934733470346F34733454
:1010FE0069347434693476346F342034653473341F
:10110E007434E13420346134763461346E347A349C
:10111E0061346E3464346F34003445346C342034AE
:10112E0044346934733470346F34733469347434C2
:10113E00693476346F342034653473347434E13466
:10114E00203464346534743465346E3469346434F4
:10115E006F34003449344E344934433449344F34B7
:08116E0020340A340D34003472
:020000040001F9
:04000E00ED3FE73F9C
:04001400FF3FFF3F6C
:00000001FF
