:020000040000FA
:08000000803102288731F52F41
:100AC20050018C010800510191019301920108002B
:100AD20071084001DF007008DE0008007108400163
:100AE200E3007008E200080071084001E1007008AC
:100AF200E0000800F1007108853187258531080082
:100B0200640080010131890B822D0034F0004E0116
:100B12008D1D8C2D8D2D882D700842019A000800A4
:100B22008531FA2585318531642585318531612507
:100B320085318531B025853108005830FD007D08AA
:100B42004001DA005708CF005608CE005A30FD00A7
:100B52007D08D00000308531D2258531080008306B
:100B620042019F0090309D0024309E0019309B006E
:100B72009C010030F0000030F10085316F25853195
:100B82000030F0000030F1008531752585310030EC
:100B9200F0000030F1008531692585314001C8013E
:100BA20008004001D3004F08D5004E08D400C00110
:100BB200C101EC2D5430D1005108FA005008D20086
:100BC2005208FB0053088631622685317A084001BB
:100BD200C0077B08C13D54088400550885001200F7
:100BE200031DF42DF52DDB2D4108CF004008CE006A
:100BF20008004001980199019A013F30920020308B
:100C020093000E3094000C307E01CE002030C300E1
:100C12003330B800C401B901CF01BA01C501D00116
:100C22003730BB00F030C600FF30D1003F30BC008F
:100C3200F030C700FF30D2000530A00011307D0136
:100C4200CB00080074080319272E282E2D2E7408B5
:100C5200031D2C2E2D2E322E720885317B258631D6
:100C6200612E7408033E86008701160001040319F1
:100C72003B2E3C2E592E7408033E86008701403FCE
:100C8200F500413FF600740A86008701403FF700F5
:100C9200413FF8007808803AF9007608803A7902F4
:100CA200031D552E750877020318582E592E612EF2
:100CB200740A860087010130810741310318810AD5
:100CC2000800FC007A0886008701403F4001C90005
:100CD200413FCA00490884004A0885001200253AAB
:100CE200031D742E752EB92E7A08860087010130F5
:100CF200810741310318810AC201C301C601C7013C
:100D0200FF30C400FF30C5007A0886008701403FEB
:100D1200C900413FCA00490884004A088500120000
:100D2200253A031D952E962EAE2E7A08860087014F
:100D32000130810741310318810A2530F200003069
:100D4200F3007C08C9004908F40086312326863165
:100D52000130FA000030FB00DB2E7A0886008701A2
:100D62000130810741310318810AFA01FB01DB2EB0
:100D72007A0886008701403FC900413FCA004908FE
:100D820084004A0885000008CB00CC014B08F20021
:100D92004C08F3007C08CD004D08F4008631232670
:100DA20086317A08860087010130810741310318B4
:100DB200810AA92E08008531B02586318531912519
:100DC20086314001DD01F230D6008830D70085310E
:100DD2009E25863160304001D6008830D7005D08FC
:100DE200DB00DC015B08D8005C08D90085319E2558
:100DF200863101304001DB005B08DD070D160E1263
:100E02000D138D138E160E178E1314304001DC0055
:100E12000730DB001130890B0C2FDB0B0C2FDC0BA6
:100E22000C2F003200304001D6008830D7005D0818
:100E3200DB00DC015B08D8005C08D90085319E2507
:100E4200863101304001DB005B08DD073230D6001D
:100E52008830D7005D08DB00DC015B08D8005C0845
:100E6200D90085319E25863101304001DB005B08C7
:100E7200DD070D120E160D178D138E120E138E171F
:100E820014304001DC000730DB001130890B472FA2
:100E9200DB0B472FDC0B472F003200304001D6001E
:100EA2008830D7005D08DB00DC015B08D8005C08F5
:100EB200D90085319E25863101304001DB005B0877
:100EC200DD07B130D6008830D70085319E258631C6
:100ED20040010D160E160D138D138E120E138E1366
:100EE20014304001DC000730DB001130890B772F12
:100EF200DB0B772FDC0B772F003200304001D6005E
:100F02008830D7005D08DB00DC015B08D8005C0894
:100F1200D90085319E25863101304001DB005B0816
:100F2200DD078C30D6008830D70085319E2586318A
:100F320040010D120E120D178D178E160E178E17F9
:100F420014304001DC000730DB001130890BA72F81
:100F5200DB0BA72FDC0BA72F003200304001D6009D
:100F62008830D7005D08DB00DC015B08D8005C0834
:100F7200D90085319E25863101304001DB005B08B6
:100F8200DD07D230D6008830D70085319E258631E4
:100F920040010D120E120D138D178E120E138E13A9
:100FA20002304001DC004530DB00A930890BD72F2D
:100FB200DB0BD72FDC0BD72F003200304001D600DD
:100FC2008830D7005D08DB00DC015B08D8005C08D4
:100FD200D90085319E25863101304001DB005B0856
:100FE200DD07EB2E8031022820308400003085009E
:100FF200293085318125873140018631DC2E2D341F
:101002002D342D342D342D342D342D342D342D34D6
:101012002D342D342D342D342D342D342D342D34C6
:101022002D342D342D342D342D342D342D342D34B6
:101032002D342D342D342D342D342D342D342D34A6
:101042002D342D342D342D342D342D342D342D3496
:101052002D342D342D342D342D3420340A340D34D6
:10106200003445346C34203464346934733470345D
:101072006F34733469347434693476346F342034A1
:101082006534733474343F342034673469347234D1
:1010920061346E3464346F342034613420346C34FF
:1010A2006134203469347A34713475346934653486
:1010B20072346434613420340A340D3400344534DB
:1010C2006C34203464346934733470346F34733460
:1010D20069347434693476346F342034653473344B
:1010E20074343F34203467346934723461346E347A
:1010F20064346F342034613420346C3461342034ED
:101102006434653472346534633468346134203451
:101112000A340D34003445346C3420344434693498
:10112200733470346F34733469347434693476349C
:101132006F3420346534733474343F342034723461
:101142006534743472346F346334653464346934AE
:1011520065346E3464346F3420340A340D34003410
:1011620045346C34203444346934733470346F340D
:10117200733469347434693476346F3420346534AA
:10118200733474343F3420346134763461346E34D1
:101192007A3461346E3464346F3420340A340D345A
:1011A200003445346C34203444346934733470343C
:1011B2006F34733469347434693476346F34203460
:1011C2006534733474343F34203464346534743495
:1011D20065346E34693464346F3420340A340D3427
:1011E200003449344E344934433449344F34203482
:0611F2000A340D34003444
:020000040001F9
:04000E00ED3FE73F9C
:04001400FF3FFF3F6C
:00000001FF
