:020000040000FA
:08000000803102288731F52F41
:100B6A0050018C0108005101910193019201080082
:100B7A0071084001DC007008DB00080071084001C0
:100B8A00E0007008DF00080071084001DE0070080C
:100B9A00DD000800F10071088531DB258531080088
:100BAA00640080010131890BD62D0034F0004E011A
:100BBA008D1DE02DE12DDC2D700842019A00080000
:100BCA0086314E2685318531B82585318531B52561
:100BDA00853186310426853108005830FD007D08AC
:100BEA004001D8005708CF005608CE005830FD0003
:100BFA007D08D0000030863126268531080008306D
:100C0A0042019F0090309D0024309E0019309B00C5
:100C1A009C010030F0000030F1008531C325863197
:100C2A000030F0000030F1008531C92586310030EE
:100C3A00F0000030F1008531BD2586314001C80140
:100C4A0008004001D3004F08D5004E08D400C00167
:100C5A00C101402E5430D1005108FA005008D20088
:100C6A005208FB0053088631B62686317A084001BD
:100C7A00C0077B08C13D540884005508850012004E
:100C8A00031D482E492E2F2E4108CF004008CE00C2
:100C9A0008004001980199019A013F3092002030E2
:100CAA0093000E3094000C307E01CE002030C30039
:100CBA003330B800C401B901CF01BA01C501D0016E
:100CCA003730BB00F030C600FF30D1003F30BC00E7
:100CDA00F030C700FF30D2000530A00011307D018E
:100CEA00CB000800740803197B2E7C2E812E740811
:100CFA00031D802E812E862E72088531CF258631DE
:100D0A00B52E7408033E86008701160001040319F4
:100D1A008F2E902EAD2E7408033E86008701403F29
:100D2A00F500413FF600740A86008701403FF7004C
:100D3A00413FF8007808803AF9007608803A79024B
:100D4A00031DA92E750877020318AC2EAD2EB52EF9
:100D5A00740A860087010130810741310318810A2C
:100D6A000800FC007A0886008701403F4001C9005C
:100D7A00413FCA00490884004A0885001200253A02
:100D8A00031DC82EC92E0D2F7A088600870101304F
:100D9A00810741310318810AC201C301C601C70193
:100DAA00FF30C400FF30C5007A0886008701403F43
:100DBA00C900413FCA00490884004A088500120058
:100DCA00253A031DE92EEA2E022F7A0886008701AA
:100DDA000130810741310318810A2530F2000030C1
:100DEA00F3007C08C9004908F40086317726863169
:100DFA000130FA000030FB002F2F7A0886008701A5
:100E0A000130810741310318810AFA01FB012F2FB2
:100E1A007A0886008701403FC900413FCA00490855
:100E2A0084004A0885000008CB00CC014B08F20078
:100E3A004C08F3007C08CD004D08F4008631772673
:100E4A0086317A088600870101308107413103180B
:100E5A00810AFD2E08008631042687318531E52571
:100E6A008731FC304001D6008830D7008531F22521
:100E7A00873162304001D6008830D7008531F225AB
:100E8A00873140011916191399131A129A161A174B
:100E9A009A130030D6008830D7008531F225873181
:100EAA000D304001DA00AF30D900B630890B5B2F24
:100EBA00D90B5B2FDA0B5B2F000032304001D600D2
:100ECA008830D7008531F225873140011912191768
:100EDA0099131A169A121A139A170030D6008830E4
:100EEA00D7008531F22587310D304001DA00AF3065
:100EFA00D900B630890B7F2FD90B7F2FDA0B7F2FC2
:100F0A000000B7304001D6008830D7008531F2257D
:100F1A00873140011916191399131A169A121A13BE
:100F2A009A130030D6008830D7008531F2258731F0
:100F3A000D304001DA00AF30D900B630890BA32F4B
:100F4A00D90BA32FDA0BA32F000090304001D60053
:100F5A008830D7008531F2258731400119121917D7
:100F6A0099171A129A161A179A170030D60088304B
:100F7A00D7008531F22587310D304001DA00AF30D4
:100F8A00D900B630890BC72FD90BC72FDA0BC72F59
:100F9A000000DA304001D6008830D7008531F225CA
:100FAA00873140011912191399171A129A121A1332
:100FBA009A130030D6008830D7008531F225873160
:100FCA000D304001DA00AF30D900B630890BEB2F73
:100FDA00D90BEB2FDA0BEB2F00003E2F80310228C2
:100FEA00203084000030850029308531D5258731AD
:100FFA0040018731302F2D342D342D342D342D34AA
:10100A002D342D342D342D342D342D342D342D34CE
:10101A002D342D342D342D342D342D342D342D34BE
:10102A002D342D342D342D342D342D342D342D34AE
:10103A002D342D342D342D342D342D342D342D349E
:10104A002D342D342D342D342D342D342D342D348E
:10105A002D3420340A340D34003445346C342034B1
:10106A0064346934733470346F3473346934743467
:10107A00693476346F342034653473347434EF341D
:10108A00BF34BD34203467346934723461346E3409
:10109A0064346F342034613420346C346134203445
:1010AA0069347A3471347534693465347234643429
:1010BA00613420340A340D34003445346C3420341D
:1010CA0064346934733470346F3473346934743407
:1010DA00693476346F342034653473347434EF34BD
:1010EA00BF34BD34203467346934723461346E34A9
:1010FA0064346F342034613420346C3461342034E5
:10110A006434653472346534633468346134203449
:10111A000A340D34003445346C3420344434693490
:10112A00733470346F347334693474346934763494
:10113A006F342034653473347434EF34BF34BD34BF
:10114A00203472346534743472346F3463346534E1
:10115A006434693465346E3464346F3420340A3448
:10116A000D34003445346C342034443469347334D7
:10117A0070346F34733469347434693476346F3448
:10118A002034653473347434EF34BF34BD342034BE
:10119A006134763461346E347A3461346E34643452
:1011AA006F3420340A340D34003445346C3420341E
:1011BA0044346934733470346F3473346934743436
:1011CA00693476346F342034653473347434EF34CC
:1011DA00BF34BD34203464346534743465346E34B9
:1011EA00693464346F3420340A340D340034493499
:1011FA004E344934433449344F3420340A340D349C
:02120A000034AE
:020000040001F9
:04000E00ED3FE73F9C
:04001400FF3FFF3F6C
:00000001FF
