:08000000803102288731F52F41
:100BB00050018C010800510191019301920108003C
:100BC00071084001DE007008DD0008007108400176
:100BD000E2007008E100080071084001E0007008C0
:100BE000DF000800F10071088531FE25853108001D
:100BF000640080010131890BF92D0034F0004E01B1
:100C00008D1D032E042EFF2D700842019A0008004E
:100C10008631712686318531DB2586318531D825AF
:100C2000863186312726863108005830FD007D0840
:100C30004001DA005708CF005608CE005A30FD00B8
:100C40007D08D00000308631492686310800083002
:100C500042019F0090309D0024309E0019309B007F
:100C60009C010030F0000030F1008531E62586312E
:100C70000030F0000030F1008531EC258631003085
:100C8000F0000030F1008531E02586314001C801D7
:100C900008004001D3004F08D5004E08D400C00121
:100CA000C101632E5430D1005108FA005008D2001F
:100CB0005208FB0053088631D92686317A08400154
:100CC000C0077B08C13D5408840055088500120008
:100CD000031D6B2E6C2E522E4108CF004008CE0013
:100CE00008004001980199019A013B309200F030D0
:100CF0009300FE309400FC307E01CE00F030C30043
:100D00003330B800C401B901CF01BA01C501D00127
:100D10003730BB00F030C600FF30D1003F30BC00A0
:100D2000F030C700FF30D2000530A00011307D0147
:100D3000CB000800740803199E2E9F2EA42E740861
:100D4000031DA32EA42EA92E72088531F22586310B
:100D5000D82E7408033E860087011600010403198B
:100D6000B22EB32ED02E7408033E86008701403F7A
:100D7000F500413FF600740A86008701403FF70006
:100D8000413FF8007808803AF9007608803A790205
:100D9000031DCC2E750877020318CF2ED02ED82E27
:100DA000740A860087010130810741310318810AE6
:100DB0000800FC007A0886008701403F4001C90016
:100DC000413FCA00490884004A0885001200253ABC
:100DD000031DEB2EEC2E302F7A08860087010130A0
:100DE000810741310318810AC201C301C601C7014D
:100DF000FF30C400FF30C5007A0886008701403FFD
:100E0000C900413FCA00490884004A088500120011
:100E1000253A031D0C2F0D2F252F7A0886008701F8
:100E20000130810741310318810A2530F20000307A
:100E3000F3007C08C9004908F40086319A268631FF
:100E40000130FA000030FB00522F7A08860087013B
:100E50000130810741310318810AFA01FB01522F49
:100E60007A0886008701403FC900413FCA0049080F
:100E700084004A0885000008CB00CC014B08F20032
:100E80004C08F3007C08CD004D08F40086319A260A
:100E900086317A08860087010130810741310318C5
:100EA000810A202F080086312726873186310826BF
:100EB0008731CA304001D6008830D70086311526E8
:100EC000873130304001D6008830D7008631152672
:100ED000873140010D160E120D138D138E160E174D
:100EE0008E1314304001DC000730DB001130890B19
:100EF000772FDB0B772FDC0B772F00320030400190
:100F0000D6008830D70086311526873140010D1272
:100F10000E160D178D138E120E138E1714304001FE
:100F2000DC000730DB001130890B942FDB0B942F92
:100F3000DC0B942F003285304001D6008830D7007A
:100F400086311526873140010D160E160D138D13AF
:100F50008E120E138E1314304001DC000730DB00BC
:100F60001130890BB12FDB0BB12FDC0BB12F00320D
:100F70005E304001D6008830D70086311526873193
:100F800040010D120E120D178D178E160E178E17AB
:100F900014304001DC000730DB001130890BCE2F0C
:100FA000DB0BCE2FDC0BCE2F0032A8304001D60059
:100FB0008830D70086311526873140010D120E1278
:100FC0000D138D178E120E138E1302304001DC00AC
:100FD0004530DB00A930890BEB2FDB0BEB2FDC0B53
:100FE000EB2F0032612F8031022820308400003046
:100FF000850029308531F825873140018731532F0D
:1010000045346C34203464346934733470346F3450
:10101000733469347434693476346F34203465340D
:1010200073347434EF34BF34BD34203467346934DE
:10103000723461346E3464346F342034613420345B
:101040006C346134203469347A34713475346934E1
:10105000653472346434613420340A340D3400341D
:1010600045346C34203464346934733470346F34F0
:10107000733469347434693476346F3420346534AD
:1010800073347434EF34BF34BD342034673469347E
:10109000723461346E3464346F34203461342034FB
:1010A0006C346134203464346534723465346334B0
:1010B0006834613420340A340D34003445346C34DF
:1010C000203444346934733470346F347334693485
:1010D0007434693476346F34203465347334743442
:1010E000EF34BF34BD342034723465347434723418
:1010F0006F34633465346434693465346E34643415
:101100006F3420340A340D34003445346C342034C8
:1011100044346934733470346F34733469347434E0
:10112000693476346F342034653473347434EF3476
:10113000BF34BD3420346134763461346E347A3453
:1011400061346E3464346F3420340A340D34003426
:1011500045346C34203444346934733470346F341F
:10116000733469347434693476346F3420346534BC
:1011700073347434EF34BF34BD3420346434653494
:10118000743465346E34693464346F3420340A3412
:101190000D34003449344E344934433449344F34E7
:0811A00020340A340D34003440
:020000040001F9
:04000E00ED3FE73F9C
:04001400FF3FFF3F6C
:00000001FF
