:020000040000FA
:08000000803102288731EB2F4B
:100E9E0051019101930192010800DC34FF340034BA
:100EAE00C034003480344E010D1E5E2F5F2F622F32
:100EBE0042011908632F0030080040019801990182
:100ECE009A017E01CE01C301B80140011312131322
:100EDE009313141294121413941308008731642779
:100EEE00873187314F27873187315A278731F8006D
:100EFE007808F90041307906031D862F872F902F31
:100F0E0040010D160D138D130E128E160E138E1329
:100F1E007B2F45307906031D952F962F9F2F40016D
:100F2E000D120D178D170E168E120E138E137B2F9C
:100F3E0044307906031DA42FA52FAE2F40010D16A8
:100F4E000D138D130E168E120E138E177B2F42302D
:100F5E007906031DB32FB42FBD2F40010D120D17AF
:100F6E008D130E128E160E138E177B2F30307906C0
:100F7E00031DC22FC32FCC2F40010D120D138D1741
:100F8E000E128E120E138E137B2F43307906031D15
:100F9E00D12FD22FE82F40010E178E17A330F80055
:100FAE005530890BD82FF80BD82F000040010E13A7
:100FBE008E136230F8006630890BE32FF80BE32FA7
:100FCE007B2F7B2F803102285430840087308500A0
:100FDE001200F0001200F1001200F2001200F300F5
:100FEE001200F4001200F500F601F70140018731FE
:020FFE00752F4D
:020000040001F9
:04000E00ED3FE73F9C
:04001400FF3FFF3F6C
:00000001FF
