:020000040000FA
:08000000803102288731EB2F4B
:100E6C0051019101930192010800DC34FF340034EC
:100E7C00C034003480344E010D1E452F462F492FAF
:100E8C00420119084A2F00300800400198019901CD
:100E9C009A01131213139313141294121413941320
:100EAC00080087314B2787318731362787318731C7
:100EBC0041278731F8007808F90041307906031D85
:100ECC00682F692F722F40010D160D138D130E1202
:100EDC008E160E138E135D2F48307906031D772F57
:100EEC00782F812F40010D160D138D130E128E16B7
:100EFC000E138E135D2F49307906031D862F872F15
:100F0C00902F40010D160D138D130E128E160E130D
:100F1C008E135D2F45307906031D952F962F9F2F2D
:100F2C0040010D120D178D170E168E120E138E1307
:100F3C005D2F44307906031DA42FA52FAE2F400141
:100F4C000D160D138D130E168E120E138E175D2F9C
:100F5C0042307906031DB32FB42FBD2F40010D1263
:100F6C000D178D130E128E160E138E175D2F30303B
:100F7C007906031DC22FC32FCC2F40010D120D1368
:100F8C008D170E128E120E138E135D2F43307906B1
:100F9C00031DD12FD22FE82F40010E178E17A3302F
:100FAC00F8005530890BD82FF80BD82F00004001D2
:100FBC000E138E136230F8006630890BE32FF80B9A
:100FCC00E32F5D2F5D2F803102283B30840087306A
:100FDC0085001200F0001200F1001200F200120065
:100FEC00F3001200F4001200F500F601F7014001C5
:040FFC008731572FB3
:020000040001F9
:04000E00ED3FE73F9C
:04001400FF3FFF3F6C
:00000001FF
