:020000040000FA
:08000000803102288731FB2F3B
:100E920051019101930192010800400198019901C9
:100EA2009A017E01CE01C301B8014001131213134E
:100EB20093131412941214139413080087314E27BB
:100EC200873187314927873140018E160D160E175B
:100ED2000D30F300AF30F200B630890B6E2FF20BFB
:100EE2006E2FF30B6E2F003240018E120D120E1375
:100EF2000230F3004530F200AA30890B7E2FF20B4C
:100F02007E2FF30B7E2F40010D170E168E170D301C
:100F1200F300AF30F200B630890B8D2FF20B8D2F1C
:100F2200F30B8D2F003240010D130E128E1702307B
:100F3200F3004530F200AA30890B9D2FF20B9D2F52
:100F4200F30B9D2F40010D160E160D30F300AF303E
:100F5200F200B630890BAB2FF20BAB2FF30BAB2F9A
:100F6200003240010D120E120230F3004530F20041
:100F7200AA30890BBA2FF20BBA2FF30BBA2F40010A
:100F82000D178E160D30F300AF30F200B630890B1C
:100F9200C82FF20BC82FF30BC82F003240010D13DC
:100FA2008E120230F3004530F200AA30890BD72F9F
:100FB200F20BD72FF30BD72F40018D170D30F30013
:100FC200AF30F200B630890BE42FF20BE42FF30BB3
:100FD200E42F003240018D130230F3004530F2005D
:100FE200AA30890BF22FF20BF22FF30BF22F652F9F
:0E0FF20080310228F001F101400187315F2FAC
:020000040001F9
:04000E00ED3FE73F9C
:04001400FF3FFF3F6C
:00000001FF
