:020000040000FA
:08000000803102288731FB2F3B
:100ECA00510191019301920108004E010D1E6E2FEE
:100EDA006F2F722F42011908732F3030080040011A
:100EEA00980199019A017E01CE01C301B80140011E
:100EFA001312131393131412941214139413080055
:100F0A0087317427873187316527873187316A2787
:100F1A008731F2007208F30041307306031D962FE1
:100F2A00972FA02F40010D160D138D130E128E163A
:100F3A000E138E138B2F45307306031DA52FA62F74
:100F4A00AF2F40010D120D178D170E168E120E13AC
:100F5A008E138B2F44307306031DB42FB52FBE2F6B
:100F6A0040010D160D138D130E168E120E138E17C9
:100F7A008B2F42307306031DC32FC42FCD2F400180
:100F8A000D120D178D130E128E160E138E178B2F30
:100F9A0030307306031DD22FD32FDC2F40010D12E0
:100FAA000D138D170E128E120E138E138B2F4330C4
:100FBA007306031DE12FE22FF82F40010E178E173B
:100FCA00A330F2005530890BE82FF20BE82F00000E
:100FDA0040010E138E136230F2006630890BF32F34
:100FEA00F20BF32F8B2F8B2F80310228F001F101A6
:060FFA0040018731852F44
:020000040001F9
:04000E00ED3FE73F9C
:04001400FF3FFF3F6C
:00000001FF
