:020000040000FA
:08000000803102288731ED2F49
:100D780051019101930192010800643400344B340D
:100D8800003432340034903046019A003E309900E5
:100D98004030980008004E010D1ED32ED42ED72EB9
:100DA80042011908D82E0030080040019801990125
:100DB8009A01131213139313141294121413941305
:100DC80008000130450190008F019101F9308D0034
:100DD8008C014E010D13803045018E000800400142
:100DE8009414141042011E121E131E1500309C008C
:100DF80081309B009D179E161D1608007708F90084
:100E08007608F800F936F80CF936F80C7808460137
:100E1800990076080339F8000530F835FF3E031DC0
:100E2800112F7835980008008631D9268731863108
:100E3800BC2687318631E52687318631C72687313A
:100E48008631F32687318631CF268731FA007A0832
:100E5800FB0041307B06031D322F332F432F3230E6
:100E6800F6000030F70087310227873140010D1660
:100E78000D138D130E128E160E138E13272F483056
:100E88007B06031D482F492F592F4B30F6000030A1
:100E9800F70087310227873140010D160D138D1396
:100EA8000E128E160E138E13272F49307B06031D44
:100EB8005E2F5F2F6F2F6430F6000030F700873108
:100EC8000227873140010D160D138D130E128E1651
:100ED8000E138E13272F45307B06031D742F752F95
:100EE800852F3230F6000030F7008731022787312E
:100EF80040010D120D178D170E168E120E138E133C
:100F0800272F44307B06031D8A2F8B2F9B2F3230CF
:100F1800F6000030F70087310227873140010D12B3
:100F28000D138D130E128E120E138E13272F4230AF
:100F38007B06031DA02FA12FB12F3230F600003001
:100F4800F70087310227873140010D120D138D13E9
:100F58000E128E120E138E13272F30307B06031DB0
:100F6800B62FB72FC72F3230F6000030F700873181
:100F78000227873140010D120D138D170E128E12A4
:100F88000E138E13272F43307B06031DCC2FCD2F36
:100F9800EA2F3230F6000030F70087310227873118
:100FA80040010E178E17A330FA005530890BDA2F3F
:100FB800FA0BDA2F000040010E138E136230FA008C
:100FC8006630890BE52FFA0BE52F272F272F803165
:100FD8000228C1308400863085001200F00012001B
:100FE800F1001200F2001200F3001200F4001200E7
:080FF800F50040018731182FBC
:020000040001F9
:04000E00ED3FE73F9C
:04001400FF3FFF3F6C
:00000001FF
